:020000040000FA
:100000005928A600360884000930A70003101120E3
:10001000A60CA70B0728031411200330A100E83019
:1000200045288413B31D202800083404331D3406EA
:100030008000841700083404031C340680002B2839
:1000400000083404031C3406331934068000841776
:10005000340980052B2800308A00330D0639A000B2
:100060003820A10000308A00200A382000004528EE
:100070003C3E03188A0A8200013475340334153477
:1000800000343C340C34D934A101E83EA000A1096D
:10009000FC30031C4E28A00703184B28A00764005F
:1000A000A10F4B2820185428A01C582800005828BD
:1000B000080007309F0083168501013086008312F7
:1000C000850186010530B6000130B400B301583017
:1000D0000120003001206400861C78280530B6001D
:1000E0000130B400B30158300120083001206B28E2
:1000F0006400061D85280530B6000130B400B30148
:10010000583001200730012078286400861D92288D
:100110000530B6000130B400B3015830012006307C
:10012000012085286400061E9F280530B600013096
:10013000B400B3015830012005300120922864003A
:10014000861EAC280530B6000130B400B30158302B
:100150000120043001209F286400061FB9280530C3
:10016000B6000130B400B301583001200330012043
:10017000AC286400861FC6280530B6000130B400E4
:10018000B3015830012002300120B92862286300F1
:02019000C7287E
:02400E00453F2C
:00000001FF
